:100000000C9466000C948E000C948E000C948E0060
:100010000C948E000C948E000C948E000C948E0028
:100020000C948E000C948E000C948E000C948E0018
:100030000C948E000C948E000C948E000C948E0008
:100040000C946D2B0C948E000C94DD2B0C94B72B20
:100050000C948E000C948E000C948E000C948E00E8
:100060000C940F2C0C948E007C3C3E5E2B3D3F2F5D
:100070005B5D3B2C2A225C000000000800020100AE
:100080000003040700000000000000000000000062
:10009000250028002B0000000000240027002A0073
:1000A000040404040404040402020202020203031E
:1000B0000303030301020408102040800102040826
:1000C00010200102040810202E2D653111241FBEBE
:1000D000CFEFD8E0DEBFCDBF13E0A0E0B1E0EAEDA6
:1000E000F9E602C005900D92A83DB107D9F728E0C6
:1000F000A8EDB3E001C01D92A53CB207E1F710E006
:10010000C5E6D0E004C02197FE010E94BA32C43691
:10011000D107C9F70E941C2E0C94E0340C94000007
:1001200090E0FC01EC54FF4F249180569F4FFC015E
:100130008491882399F090E0880F991FFC01EA567A
:10014000FF4FA591B491FC01E457FF4F8591949125
:100150008FB7F894EC91E22BEC938FBF089520E3D6
:10016000FC0120833296862F82958F706F706A30E3
:1001700030F4605D6293682F8111F5CF0895695C5A
:10018000F9CFFC01818D928D0895089590E0FC01D6
:10019000E858FF4F2491FC01EC54FF4F3491FC01CF
:1001A000E056FF4FE491EE23C9F0222339F02330CB
:1001B00001F1A8F4213019F1223029F1F0E0EE0F1D
:1001C000FF1FE457FF4FA591B4918FB7F894EC91BE
:1001D000611126C030953E233C938FBF0895273090
:1001E000A9F02830C9F0243049F7809180008F7D34
:1001F00003C0809180008F7780938000DFCF84B52B
:100200008F7784BDDBCF84B58F7DFBCF8091B0002D
:100210008F778093B000D2CF8091B0008F7DF9CFDF
:100220003E2BDACF3FB7F89480911C0590911D05C5
:10023000A0911E05B0911F0526B5A89B05C02F3FB4
:1002400019F00196A11DB11D3FBFBA2FA92F982FFC
:100250008827BC01CD01620F711D811D911D42E0F7
:10026000660F771F881F991F4A95D1F708958F92BF
:100270009F92AF92BF92CF92DF92EF92FF924B018B
:100280005C010E9412016B017C010E9412016C1939
:100290007D098E099F09683E734081059105A8F389
:1002A00021E0821A9108A108B10888EEC80E83E007
:1002B000D81EE11CF11C81149104A104B10429F79A
:1002C000FF90EF90DF90CF90BF90AF909F908F9076
:1002D00008952FB7F89460911805709119058091D1
:1002E0001A0590911B052FBF0895DB0114964D91BF
:1002F0005C9115976D917C91DC01ED91FC910280F0
:10030000F381E02D0994AF92BF92CF92DF92EF92EA
:10031000FF920F931F93CF93DF936C017B018B01AF
:10032000040F151FEB015E01AE18BF08C017D107FF
:1003300059F06991D601ED91FC910190F081E02D89
:10034000C6010995892B79F7C501DF91CF911F91DE
:100350000F91FF90EF90DF90CF90BF90AF900895F6
:10036000FC01538D448D252F30E0842F90E0821BBB
:10037000930B541710F0CF96089501970895FC0140
:10038000918D828D981761F0A28DAE0FBF2FB11D98
:100390005D968C91928D9F5F9F73928F90E00895F0
:1003A0008FEF9FEF0895FC01918D828D981731F0AA
:1003B000828DE80FF11D858D90E008958FEF9FEFFE
:1003C0000895FC01918D228D892F90E0805C9F4FD4
:1003D000821B91098F739927089580E497E00E940A
:1003E000E10121E0892B09F420E0822F089580E0CB
:1003F00090E0892B29F00E94ED0181110C940000FE
:100400000895FC01A48DA80FB92FB11DA35ABF4FA9
:100410002C91848D90E001968F739927848FA68903
:10042000B7892C93A089B1898C91837080648C9357
:10043000938D848D981306C00288F389E02D808106
:100440008F7D80830895EF92FF920F931F93CF9338
:10045000DF93EC0181E0888F9B8D8C8D98131AC0FF
:10046000E889F989808185FF15C09FB7F894EE89E6
:10047000FF896083E889F989808183708064808343
:100480009FBF81E090E0DF91CF911F910F91FF908E
:10049000EF900895F62E0B8D10E00F5F1F4F0F7336
:1004A0001127E02E8C8D8E110CC00FB607FCFACFF1
:1004B000E889F989808185FFF5CFCE010E9401028C
:1004C000F1CFEB8DEC0FFD2FF11DE35AFF4FF082C2
:1004D0009FB7F8940B8FEA89FB8980818062CFCF28
:1004E000CF93DF93EC01888D8823B9F0AA89BB896B
:1004F000E889F9898C9185FD03C0808186FD0DC056
:100500000FB607FCF7CF8C9185FFF2CF808185FF76
:10051000EDCFCE010E940102E9CFDF91CF91089586
:10052000FC0120812EBD9B012150310941F05181F8
:100530000DB407FEFDCF4EB55EBD4193F5CF6150C2
:100540007109860F971F0DB407FEFDCF2EB5FC0174
:1005500020830895E0910E05F0910F058081909120
:100560000D05892B80830895E0910E05F0910F050C
:10057000908180910D05809589238083089590E076
:1005800020913C05233339F40C96982F990F990F3D
:10059000990F80E008954896F8CFCF93DF931F928C
:1005A000CDB7DEB76983DC01ED91FC910280F38168
:1005B000E02D41E050E0BE016F5F7F4F09950F9045
:1005C000DF91CF910895FC019485FB0184859813F8
:1005D00003C081E0943008F080E00895CF93DF936A
:1005E0001F92CDB7DEB76983DC01ED91FC910280EB
:1005F000F381E02D41E050E0BE016F5F7F4F099530
:100600000F90DF91CF910895CF93CFB7F894809159
:100610000C05811124C0EAEAF0E08491EEEBF0E0F1
:100620009491E82FF0E0EE0FFF1FEA56FF4FA591DF
:10063000B491EC91E92321F461E08AE00E94C600C4
:100640008AE00E9490008CB580618CBD8CB580647E
:100650008CBD8DE00E9490008BE00E949000809104
:100660000C058F5F80930C05CFBFCF91089508953F
:1006700061E0FC0184810E94C60080910605811121
:100680001092060508958EBD00000DB407FEFDCF43
:100690008EB50895AF92BF92CF92DF92EF92FF9204
:1006A0000F931F93CF93DF93CDB7DEB728970FB685
:1006B000F894DEBF0FBECDBF8C017B016A01809133
:1006C0003C058333E1F45801A40EB51EA016B10613
:1006D00009F46FC00E94B40280EF0E944303812F8F
:1006E0000E944303802F0E9443030F5F1F4FF701B7
:1006F00081917F010E9443030E94AA02E7CF5B0120
:10070000A40EB51E8433C1F40E94B40219830A8377
:100710008D2D80688B83CC8264E070E0CE010196E1
:100720000E949002AE14BF0409F441C0F701819108
:100730007F010E944303F6CF0E94B4020F3F1105D0
:1007400009F028F419820A8384E08B830CC017FD1A
:1007500017C019820A8333E0169507953A95E1F799
:10076000007E0C600B8386E0C816D104A0F5F7016B
:10077000DE011496EA15FB0599F081918D93FACF6D
:10078000C80126E0969587952A95E1F7807E198322
:100790000A830115104C10F48461D7CF8C61D5CF3A
:1007A000B6016D5F7F4FCE0101960E9490020E94BC
:1007B000AA02C60128960FB6F894DEBF0FBECDBFC1
:1007C000DF91CF911F910F91FF90EF90DF90CF902D
:1007D000BF90AF90089563E070E0CE0101960E9453
:1007E0009002F70181917F010E944303AE14BF0480
:1007F000C1F7DDCFCF93DF931F92CDB7DEB78983EB
:1008000041E050E0BE016F5F7F4F90E080E00E94CA
:100810004A030F90DF91CF910895DA01E09110051E
:10082000F0E0FE2FEE27E60FF71F90E0982F8827C5
:10083000A901BD018E0F9F1F0C944A03CF93DF9334
:1008400000D0CDB7DEB779836A8322E030E0AE0115
:100850004F5F5F4F60E170E00E940D040F900F90BA
:10086000DF91CF910895CF93DF9300D0CDB7DEB75E
:1008700079836A8322E030E0AE014F5F5F4F64E02E
:1008800070E00E940D040F900F90DF91CF910895BA
:10089000CF93DF931F92CDB7DEB72091100530E0E4
:1008A000322F2227260F371F90E0982F8827498361
:1008B00041E050E0BE016F5F7F4F820F931F0E94A7
:1008C0004A030F90DF91CF91089544E050E0BC01BE
:1008D0008FE090E00C944A0344E050E0BC0185E0D6
:1008E00090E00C944A0344E050E0BC0181E090E0C9
:1008F0000C944A038FEF0C9443030F931F93CF93F1
:10090000DF93EC010E9469018B010E947A048F3F02
:1009100069F00E946901601B710B6C177D07A8F3D9
:1009200080E0DF91CF911F910F91089581E0F9CF81
:100930008CBD9DBD0895FF920F931F93CF93DF93BE
:10094000EB01FC01178A168A2A81211109C02B812B
:10095000211106C02C81211103C02D81222301F118
:1009600041155105E9F08A01FC01F08C80E591E028
:100970000E949804AE014E5F5F4F24E030E06CE0CF
:1009800070E08F2D0E940D04B8018F2D0E941E046F
:1009900081E090E0DF91CF911F910F91FF9008953A
:1009A00080E0F7CFCF93DF93EC01809106058111B2
:1009B00009C081E080930605809113089091140886
:1009C0000E94980460E08C81DF91CF910C94C60066
:1009D0008F929F92AF92BF92FF920F931F93CF93EC
:1009E000DF93EC01F62E49015A018E81882389F0AC
:1009F0008F8198859C012F5F3F4F38872F838230EE
:100A0000924018F40E947A04F3CFCE010E9438037A
:100A10001E82CE010E94D2048CE291E00E947D04ED
:100A20008F2D80640E94430308E110E0D501C401CA
:100A3000002E04C0B695A795979587950A94D2F78E
:100A40000E94430308501109083F8FEF180771F700
:100A500085E9FF2021F028E087E8F2128FEF0E945D
:100A6000430310E00E947A048A8787FF04C01F3F77
:100A700011F01F5FF7CFDF91CF911F910F91FF9082
:100A8000BF90AF909F908F900895AF92BF92CF92FA
:100A9000DF92EF92FF920F931F93CF93DF93EC01BE
:100AA0006901C801820F931F8130924050F58E81F9
:100AB000882379F088819981AA81BB818417950761
:100AC000A607B70731F48F819885C816D90608F0B4
:100AD00042C0488359836A837B838B85833039F096
:100AE00089E0440F551F661F771F8A95D1F79A0139
:100AF000AB0161E1CE010E94E804882389F083E024
:100B00008D83CE010E94380380E0DF91CF911F9149
:100B10000F91FF90EF90DF90CF90BF90AF9008952E
:100B20000E9469015B010E947A048A878F3F69F401
:100B30000E9469016A197B096D327140A0F38FE050
:100B40008D83CE010E943803DCCF8E3F89F4188656
:100B50001F8281E08E838F8198858C159D0550F4CE
:100B60000E947A048F819885019698878F83F3CFAE
:100B70008DE0E6CF6701E00EF11E0E947A04F601D7
:100B800081936F01EE15FF05C1F78F819885080FDE
:100B9000191F18870F838985882319F001151240C2
:100BA000A0F08E81882389F08F8198859C012F5F2A
:100BB0003F4F38872F838230924018F40E947A0486
:100BC000F3CFCE010E9438031E8281E09ECFCF92E8
:100BD000DF92EF92FF920F93CF93DF93EC016901C5
:100BE00082E1411551056105710599F08B858330CE
:100BF00039F089E0440F551F661F771F8A95D1F79A
:100C00009A01AB0168E1CE010E94E804882319F043
:100C100084E08D832DC08EEF0E94430376018EEF1A
:100C2000D81AF70181917F010E944303EC14FD045F
:100C3000C1F78FEF0E9443038FEF0E9443030E948E
:100C40007A048A878F71853071F4011116C0CE0144
:100C50000E94380381E0DF91CF910F91FF90EF90D8
:100C6000DF90CF90089581E18D83CE010E943803FB
:100C7000CE010E94380380E0EECF88E592E00E942A
:100C80007D04811102C085E1C4CF20E030E0A901DC
:100C90006DE0CE010E94E804882311F084E1B9CF11
:100CA0000E947A048111FACFD2CF0F9340910805A8
:100CB0005091090560910A0570910B054115510588
:100CC0006105710599F0082F2DE335E080913D070E
:100CD00090913E070E94E705882349F0109208058D
:100CE0001092090510920A0510920B0581E00F91F0
:100CF00008950F93CF93C82F80910705811105C0E8
:100D0000C1E08C2FCF910F91089540910001509137
:100D1000010160910201709103010C2F2DE335E078
:100D200080913D0790913E070E94E705811102C026
:100D3000C0E0E7CFCC2321F381E00E945506882351
:100D4000B9F310920705DDCF8F929F92AF92BF92B9
:100D5000EF92FF920F931F93CF934B015C01C42F2F
:100D60008091000190910101A0910201B0910301D5
:100D700088159905AA05BB0551F181E00E94790605
:100D800081110BC080E0CF911F910F91FF90EF90E8
:100D9000BF90AF909F908F9008958DE3E82E85E0EF
:100DA000F82E00E012E030E020E0B501A4018091CF
:100DB0003D0790913E070E944505882319F38092D4
:100DC000000190920101A0920201B09203014091B2
:100DD00007054C2B4093070581E0D5CF8F929F925A
:100DE000AF92BF92CF92DF92EF92FF92CF9325E125
:100DF00038E030933E0720933D07882309F46DC007
:100E000040E060E070E0CB010E94A40681110BC0BD
:100E100080E0CF91FF90EF90DF90CF90BF90AF90A8
:100E20009F908F9008958091FB068F7789F780912E
:100E3000070790910807A0910907B0910A07843627
:100E40009105A105B10520F3C0900307D0900407D8
:100E5000E0900507F0900607C114D104E104F10405
:100E6000B9F240E0C701B6010E94A406882381F2CE
:100E700080914805909149058115924049F6A091CD
:100E80004D05AA2329F260914B0570914C0561151F
:100E9000710509F4BDCF20914A05222309F4B8CF8A
:100EA000A09333082093250890E080E030E0E1E053
:100EB000F0E0C82FAF01082E02C0440F551F0A945E
:100EC000E2F72417350769F041E0480F01968930B1
:100ED000910579F740932E089BCFC12CD12C760138
:100EE000C0CF80932E08209153053091540550E0D7
:100EF00040E02115310541F42091610530916205F2
:100F0000409163055091640520932608309327088B
:100F1000409328085093290846015701860E971ED2
:100F2000A11CB11C8092340890923508A09236081A
:100F3000B0923708E0914E05F0914F05F0933A08D2
:100F4000E0933908B0E00E942C32DC01CB01880D1F
:100F5000991DAA1DBB1D80933B0890933C08A0934C
:100F60003D08B0933E0825E0EE0FFF1F2A95E1F7FC
:100F7000E150FE4FEF2FFF27E6958E0F9F1FA11D1B
:100F8000B11D80932F0890933008A0933108B0933F
:100F900032088090500590905105B12CA12C8114FD
:100FA000910441F480905D0590905E05A0905F05EE
:100FB000B0906005C81AD90AEA0AFB0AC80CD91C05
:100FC000EA1CFB1C04C0F694E794D794C794CA9516
:100FD000D2F7C0922A08D0922B08E0922C08F09207
:100FE0002D0885EFC8168FE0D806E104F10428F437
:100FF0008CE08093380881E00CCF80E125EFC216A9
:101000002FEFD206E104F104A0F3809169059091DD
:101010006A05A0916B05B0916C0580933B08909395
:101020003C08A0933D08B0933E0880E2E2CF4F9287
:101030005F926F927F928F929F92AF92BF92CF9268
:10104000DF92EF92FF920F931F93CF93DF93EC0108
:10105000423051056105710590F480E0DF91CF9138
:101060001F910F91FF90EF90DF90CF90BF90AF90C6
:101070009F908F907F906F905F904F90089589859B
:101080009A85AB85BC850196A11DB11D8417950776
:10109000A607B70710F3CB88DC88ED88FE888F8918
:1010A000803109F042C0BB27A72F962F852F48011A
:1010B00059012A013B01C80ED91EEA1EFB1E809170
:1010C000000190910101A0910201B0910301C816A5
:1010D000D906EA06FB0699F58F898031C1F5B3017F
:1010E000A201552766277727440F551F435C5A4FA7
:1010F000FA019182808280910705816080930705C3
:101100008A89823080F08D819E81AF81B8858C0D77
:101110009D1DAE1DBF1D8093080590930905A093EA
:101120000A05B0930B0581E099CFDB01CA01E7E026
:10113000B695A79597958795EA95D1F7B8CF40E0F2
:10114000C701B6010E94A4068111C6CF86CFB301A4
:10115000A2014F77552766277727440F551F440F65
:10116000551F435C5A4FFA0180829182A282B3825A
:10117000C2CF8F929F92AF92BF92CF92DF92EF92A7
:10118000FF920F931F93CF93DF93FC01818592858C
:10119000A385B4850196A11DB11D84179507A607E7
:1011A000B70770F480E0DF91CF911F910F91FF900E
:1011B000EF90DF90CF90BF90AF909F908F90089569
:1011C00083889488A588B6888789803189F5BB276C
:1011D000A72F962F852FE9016A017B018F01BC01A2
:1011E000CD01680D791D8A1D9B1D80900001909096
:1011F0000101A0900201B090030186169706A8068F
:10120000B90601F5F8018789803111F5DD24EE2456
:10121000FF24F601EE0FFF1FE35CFA4F80819181FE
:10122000B0E0A0E088839983AA83BB8381E0BBCF31
:10123000DB01CA01C7E0B695A79597958795CA9532
:10124000D1F7C9CF40E00E94A4068111DBCFAACF1D
:10125000E894C7F8DD24EE24FF24F601EE0FFF1F0B
:10126000EE0FFF1FE35CFA4F80819181A281B38171
:10127000BF70D8CF4F925F926F927F92AF92BF9222
:10128000CF92DF92EF92FF920F931F93CF93DF9352
:1012900000D000D0CDB7DEB78C0149835A836B8371
:1012A0007C835901C12CD12C7601412C82E0582E2F
:1012B000612C712C49815A816B817C819E012F5F49
:1012C0003F4FC8010E94B908882339F1F80185858C
:1012D000A301920104C0220F331F441F551F8A959A
:1012E000D2F7DA01C901C80ED91EEA1EFB1E4981D8
:1012F0005A816B817C818789803111F188EF9FEF62
:10130000AFEFBFE0481759076A077B0798F2F5016E
:10131000C082D182E282F38281E00F900F900F9021
:101320000F90DF91CF911F910F91FF90EF90DF9081
:10133000CF90BF90AF907F906F905F904F90089547
:1013400088EF9FEFA0E0B0E0DDCFCF93DF93FC010B
:101350002581222321F080E0DF91CF910895EC01D7
:1013600080913808803159F582E08583178A108E84
:10137000118E128E8091390890913A08B0E0A0E069
:1013800025E0880F991FAA1FBB1F2A95D1F7838BD1
:10139000948BA58BB68B81E298E09C8F8B8F81E03C
:1013A0008C831E821F82188619861A861B861C86CD
:1013B0001D861E861F86188A198A1A8ACDCF80320A
:1013C00051F683E0858340913B0850913C08609141
:1013D0003D0870913E08478B508F618F728F9F013F
:1013E0002D5E3F4F81E298E00E943A098111D3CFF0
:1013F000B2CF8F929F92AF92BF92CF92DF92EF9235
:10140000FF920F931F93CF93DF93EC018D81811196
:101410000EC080E0DF91CF911F910F91FF90EF9070
:10142000DF90CF90BF90AF909F908F9008950B89E1
:101430001C892D893E89041715072607370748F3AD
:101440004A015B01823031F48A869B86AC86BD8678
:1014500081E0E0CF81149104A104B10449F41E821B
:101460001F82188619861A861B861C861D86F0CF59
:101470000A851B852C853D85EB8DFC8D858590E04F
:101480000996B901A8014150510961097109082E55
:1014900004C076956795579547950A94D2F77501DC
:1014A0006401E1E0CE1AD108E108F10804C0F69425
:1014B000E794D794C7948A95D2F7C416D506E60662
:1014C000F70620F0012B022B032B11F58F89988D45
:1014D000A98DBA8D8E839F83A887B9878E010A5FF5
:1014E0001F4FC114D104E104F10409F4ADCF4E81C2
:1014F0005F816885798598018B8D9C8D0E94B908E4
:1015000091E0C91AD108E108F1088111EACF81CF31
:10151000C41AD50AE60AF70AE1CF3F924F925F92CA
:101520006F927F928F929F92AF92BF92CF92DF92F3
:10153000EF92FF920F931F93CF93DF93CDB7DEB758
:101540002C970FB6F894DEBF0FBECDBF5C01DC0157
:101550005B968D909C905C9716964D905D906D90EB
:101560007C901997411451046104710409F468C016
:10157000BFEF4B1A5B0A6B0A7B0A312CF4018185A1
:101580009285A385B4859C01AD012F5F3F4F4F4FDE
:101590005F4F29873A874B875C87730162011D8201
:1015A0001E821F821886F40181859285A385B485E9
:1015B0002D813E814F815885281739074A075B07DF
:1015C00008F056C089859A85AB85BC858C159D052C
:1015D000AE05BF0550F482E0C82ED12CE12CF12CD1
:1015E00092E0492E512C612C712C9E012F5F3F4FB0
:1015F000B701A601C4010E94B9088823C9F18981F5
:101600009A81AB81BC81892B8A2B8B2B09F1260116
:1016100037019FEF491A590A690A790A2D813E81DB
:101620004F8158852F5F3F4F4F4F5F4F2D833E8334
:101630004F8358873FEFC31AD30AE30AF30AB3CFA5
:10164000F40140805180628073803324339496CFBC
:10165000C414D504E604F70409F70FEF1FEF2FEFCA
:101660003FE0B701A601C4010E941708811119C00B
:1016700080E02C960FB6F894DEBF0FBECDBFDF9191
:10168000CF911F910F91FF90EF90DF90CF90BF907F
:10169000AF909F908F907F906F905F904F903F9012
:1016A0000895D50116964D915D916D917C91199794
:1016B000411551056105710539F097018601C40195
:1016C0000E9417088823A1F2D5011696CD92DD92CB
:1016D000ED92FC921997332051F0D701C601019683
:1016E000A11DB11DF40180839183A283B383F50111
:1016F0008789908DA18DB28D892B8A2B8B2B39F404
:101700008481C78AD08EE18EF28E80688483F50151
:1017100084818062848381E0ACCF1F93CF93DF9379
:10172000FC0125812223D1F1162FEC01848187FF52
:101730002AC0668577858089918941E00E94A40648
:10174000882361F1EA8980E2E89FF0011124E35CDB
:10175000FA4F309719F18D81823040F48B899C8942
:10176000AD89BE89848F958FA68FB78F8F89988D0D
:10177000938F828F8F89988DA98DBA8DB58BA48B0D
:101780008C818F778C83111103C08C818F7E8C8329
:10179000812FDF91CF911F910C94790680E0DF912A
:1017A000CF911F910895FF920F931F93CF93DF93D3
:1017B000EC018D81813041F090E080E0DF91CF91AC
:1017C0001F910F91FF9008958C8181FFF5CF82FDCD
:1017D0001BC000913D0710913E07C8010E94D20432
:1017E0000E947A04F82EC8010E9438038FEFF81285
:1017F000E3CF8C8185FF1BC060E0CE010E948D0B82
:101800008C818F7D8C83D8CF4B895C896D897E8953
:101810008A859B85AC85BD8584179507A607B70784
:10182000C1F2CE010E94F9098111D3CFC5CF4091F9
:1018300008055091090560910A0570910B05452B2B
:10184000462B472B21F080E00E945506B5CF8061E2
:101850008C832A853B85317080E092E0821B930B5C
:10186000ADCFCF93DF93EC0161E00E948D0B882315
:1018700011F01D8281E0DF91CF910895CF92DF9228
:10188000EF92FF921F93CF93DF93809144088823B8
:1018900021F08FE398E00E94310C10922008109202
:1018A0001E0810921B0810921A0884E080931908F1
:1018B0000E946901EB01809119080E94900061E08B
:1018C000809119080E94C6000E94040382E580935B
:1018D00013081092140880911308909114080E9424
:1018E00098041AE08FEF0E9443031150D9F785E165
:1018F00098E00E94D20420E030E0A90160E085E198
:1019000098E00E94E804182F80931F08813081F02E
:101910000E9469016C1B7D0B613D774060F381E0A3
:1019200080931A0885E198E00E94380390E078C01F
:101930002AEA31E040E050E068E085E198E00E946A
:10194000E80482FF2AC01093200880912008C12C4F
:10195000D12C7601823029F4C12CD12CE12C80E4E9
:10196000F82E20E030E0A90167E385E198E00E94CD
:10197000E804A701960169E285E198E00E94E80485
:1019800080931F088823C1F00E9469016C1B7D0BA6
:10199000613D774030F388E0C3CF14E00E947A04C1
:1019A00080931F081150D1F78A3A11F082E0B8CF26
:1019B00082E080932008C9CF809120088230D1F442
:1019C00020E030E0A9016AE385E198E00E94E804A4
:1019D000882311F086E0A4CF0E947A04807C803CAA
:1019E00019F483E0809320080E947A040E947A040C
:1019F0000E947A0485E198E00E94380380E5809394
:101A000013081092140881E00E94EE06882389F0E2
:101A10008FE398E00E94A50991E0882309F486CF1E
:101A2000892FDF91CF911F91FF90EF90DF90CF90A2
:101A3000089580E00E94EE06882309F477CFE8CF6E
:101A40002F923F924F925F926F927F928F929F92CE
:101A5000AF92BF92CF92DF92EF92FF920F931F93BC
:101A6000CF93DF9300D000D01F92CDB7DEB77C01BB
:101A70005B01342E5D83DC0115968C9115978130C6
:101A800009F0CEC014962C9021FECAC022FCB4C02E
:101A9000C32CDD8022947FE027222094B22DB170E8
:101AA0002B2ED7011A964D915D916D917C911D97CA
:101AB000C114D10409F428C15B968D919C915C9767
:101AC000FC0174807A948A019B0169E03695279520
:101AD000179507956A95D1F770228A0111707110D8
:101AE00020C001151105E9F416964D915D916D9197
:101AF0007C911997411551056105710509F099C04F
:101B000057968D919D910D90BC91A02D0097A105A8
:101B1000B10509F0B0C0C7010E948D0A882309F4FD
:101B20007FC080E092E0801B910B46018C159D05E3
:101B300008F44C01D7015B964D915C915C97169629
:101B40008D919D910D90BC91A02D0297A109B10995
:101B5000FA01258504C0880F991FAA1FBB1F2A956B
:101B6000D2F74685578560897189840F951FA61F16
:101B7000B71F9C01AD01270D311D411D511D2901CC
:101B80003A01811432E0930609F07BC08091000194
:101B900090910101A0910201B09103018415950576
:101BA000A605B70559F48FEF9FEFDC018093000184
:101BB00090930101A0930201B0930301022D9501BE
:101BC000B301A20180913D0790913E070E94E70575
:101BD000882331F19EEFB91AC818D908F701828518
:101BE0009385A485B585880D991DA11DB11D82879A
:101BF0009387A487B58755CFF701438954896589B1
:101C0000768982859385A485B585481759076A0723
:101C10007B0709F43DCFC7010E94F909811138CF34
:101C200081E090E0D70113969C938E93129780E009
:101C300007C09E012F5F3F4F0E94B908811102C06B
:101C400090E079C089819A81AB81BC81F701238DB5
:101C5000348DF901278948EF5FEF60E070E02031B3
:101C600021F048EF5FEF6FEF7FE084179507A6073D
:101C7000B70708F050CFF70186839783A087B18715
:101C800050CF0115110599F5D7011A964D915D9127
:101C90006D917C911D9753968D919D910D90BC9166
:101CA000A02D481759076A077B0708F181E00E94B9
:101CB0007906882309F4B4CF4092000150920101C3
:101CC0006092020170920301809107058160809308
:101CD0000705C801835C9A4FD5019C01280D391D69
:101CE000FC012E173F0759F04D914193FACF41E087
:101CF000C301B2010E94A4068111EBCF91CF281B32
:101D0000390BA20EB31E68CFF70183899489A58988
:101D1000B68984179507A607B70738F48481438BE3
:101D2000548B658B768B80688483F701848183FD77
:101D30001AC0832D9D810F900F900F900F900F90E0
:101D4000DF91CF911F910F91FF90EF90DF90CF9097
:101D5000BF90AF909F908F907F906F905F904F90CB
:101D60003F902F90089561E0C7010E948D0B88235A
:101D700009F456CFDECFCF93DF931F92CDB7DEB7F6
:101D8000698341E050E0BE016F5F7F4F0E94200DEC
:101D90000F90DF91CF910895FC01DB0112968D9198
:101DA0009C9113979383828383E591E09183808351
:101DB00014968C911497848315968C91159785832E
:101DC00016964D915D916D917C911997468357833D
:101DD000608771871A964D915D916D917C911D97E9
:101DE00042875387648775871E964D915D916D91EB
:101DF0007C91519746875787608B718B52968C9157
:101E00005297828B53964D915D916D917C9156972F
:101E1000438B548B658B768B57964D915D916D916D
:101E20007C915A97478B508F618F728F5B968D9103
:101E30009C91948F838F08950895FC01818D928DDC
:101E4000009719F061E00C948D0B0895DC01599610
:101E5000ED91FC913097B9F083899489A589B68971
:101E60004285538564857585841B950BA60BB70B3E
:101E7000811520E89207A105B10538F08FEF9FE7A3
:101E8000A0E0B0E0089590E080E00895DC0159966C
:101E90008D919C91009739F0DC01ED91FC910480CB
:101EA000F581E02D099490E080E00895CF93DF93D1
:101EB000EC01E98DFA8D309749F481E090E09B8345
:101EC0008A8390E080E0DF91CF910895138212829F
:101ED000898D9A8D0E94200DE98DFA8D22813381A2
:101EE000232B59F7F0CFCF93DF931F92CDB7DEB7F7
:101EF0006983DC01ED91FC910280F381E02D41E0EA
:101F000050E0BE016F5F7F4F09950F90DF91CF9139
:101F100008952F923F924F925F926F927F928F928D
:101F20009F92AF92BF92CF92DF92EF92FF920F9368
:101F30001F93CF93DF9300D01F92CDB7DEB7FC0184
:101F40008581811118C08FEF9FEF0F900F900F9038
:101F5000DF91CF911F910F91FF90EF90DF90CF9085
:101F6000BF90AF909F908F907F906F905F904F90B9
:101F70003F902F900895848180FFE5CF4389548955
:101F80006589768982859385A485B585312C212C38
:101F9000481759076A077B0719F022242394312C2C
:101FA0006F012101CE0101963C01DF011696BB8332
:101FB000AA834114510409F4C5C0F6014285538532
:101FC000648575854A01F1E09F22D6015B968D916B
:101FD0009C915C978A019B01E9E0369527951795BE
:101FE0000795EA95D1F71596EC91E230E9F5FC01F9
:101FF000628D738D848D958D600F711F821F931F6D
:10200000A12C22E0B22EA818B9084A145B0408F4E7
:102010005201F601248126FD04C0A114F2E0BF069E
:1020200071F40091000110910101209102013091A1
:102030000301061717072807390709F05EC040E0BB
:102040000E94A406882309F47ECFC401835C9A4FC2
:10205000D3019C012A0D3B1DFC012E173F0709F4FB
:102060006CC041914D93F9CFDC011496BC90BA94A9
:10207000B0228114910479F4B1100DC0452B462B88
:10208000472B69F5F6018789908DA18DB28D8683E6
:102090009783A087B187D6015B96ED91FC915C9701
:1020A00016966D917D918D919C9119976250710951
:1020B00081099109258504C0660F771F881F991F24
:1020C0002A95D2F70685178520893189600F711FFF
:1020D000821F931F6B0D711D811D911D91CFD60124
:1020E00016964D915D916D917C9119972A813B8156
:1020F0000E94B9088111CFCF26CF730185019401C9
:10210000AB01BC0180913D0790913E070E944505BF
:10211000882309F418CF6A0C7B1CF601828593850D
:10212000A485B5858A0D9B1DA11DB11D828793874E
:10213000A487B5874A185B083CCF281B390B620E71
:10214000731EEBCF2A94232809F0FDCE898190E0FD
:10215000FCCEFC01818D928D009711F00C94890FBB
:102160008FEF9FEF08950F931F93CF93DF93EC01B1
:10217000898D9A8D10E000E0009799F00E94890FF8
:102180008C010F3F100769F0898D9A8DFC01428503
:1021900053856485758541505109610971090E9413
:1021A000F909C801DF91CF911F910F9108952091F6
:1021B000BA04260F3327331F21323105ECF4209166
:1021C000E004FC0190E080E0243069F082E00895B2
:1021D000A091BA042191AC0148565B4FA40FB52FD2
:1021E000B11D2C930196861798F38091BA04680F5D
:1021F0006093BA0480E0089581E008951092E004AD
:1022000081E08093E2041092E10461E082E10E94A7
:10221000C60061E083E10E94C600E9EBF0E0808146
:102220008E7F808380818D7F808388E48093B80057
:1022300085E48093BC00089508950895E0918F048B
:1022400080918E04E81730F4F0E0E259FB4F808172
:1022500090E008958FEF9FEF089590918F04809103
:102260008E042FEF3FEF981748F4E92FF0E0E25982
:10227000FB4F208130E09F5F90938F04C901089548
:1022800080918E0490918F04891B990B0895CF93B0
:10229000DF93CB01EA01642F0E94D710CE01DF91BA
:1022A000CF910895CF93DF931F92CDB7DEB76983A7
:1022B00061E0CE0101960E94D71081E090E00F907E
:1022C000DF91CF910895FC01768765870895DC0141
:1022D000ED91FC9102A0F3A1E02D099591E08927F1
:1022E0000895862F089581E08627089521E0FC0156
:1022F0008485843008F020E0822F08950895FC0141
:10230000848595850895FC018489958908952FED2C
:1023100031E0FC0131832083FB01408951896289CE
:102320007389FC0142835383648375830895DC01C0
:10233000ED91FC91048CF58DE02D099490E080E006
:102340000895CF92DF92EF92FF921F93CF93DF9386
:10235000EC0180E2689FF0011124E35CFA4F938561
:10236000917161F0842F827449F080E0DF91CF9108
:102370001F91FF90EF90DF90CF900895142F6A8BFC
:102380008091000190910101A0910201B09103019F
:102390008E879F87A88BB98BC488D588F12CE12CB8
:1023A0007601DD24CC24CF8AD88EE98EFA8E828DF8
:1023B000938DB0E0A0E0AC01BD014C295D296E29F0
:1023C0007F294F8B588F698F7A8F83858871B1F4FD
:1023D000848D958DA68DB78D8B8B9C8BAD8BBE8B95
:1023E00081E08D831F701C831E821F8218861986D0
:1023F0001A861B861C861D8681E0B8CF803109F0C5
:10240000B4CF9E012D5E3F4F8B8D9C8D0E943A096B
:10241000882309F4AACF84E0E4CFAF92BF92CF9291
:10242000DF92EF92FF920F931F93CF93DF9300D031
:1024300000D0CDB7DEB78C016B017A0180913C05ED
:102440008333E9F45B016801C40ED51EC016D106C2
:10245000A9F10E94B4028FE00E944303812F0E94E1
:102460004303802F0E9443030F5F1F4F80E00E94B1
:102470004303F50181935F010E94AA02E7CF8433F1
:1024800069F50E94B40219830A838F2D8F778B839D
:10249000EC8264E070E0CE0101960E949002A701F8
:1024A00070E060E0C6010E94B834E114F10421F04C
:1024B000B701C6010E9490020E94AA02C7010F90B4
:1024C0000F900F900F90DF91CF911F910F91FF9080
:1024D000EF90DF90CF90BF90AF9008950E94B4022C
:1024E0000F3F110509F030F419820A831B8263E063
:1024F00070E0D1CF17FD0BC019820A8333E0169527
:1025000007953A95E1F7007E08600B83F0CFC8018C
:1025100026E0969587952A95E1F7807E19830A83B0
:102520000115104C18F480618B83E1CF8861FCCFDA
:10253000CF93DF931F92CDB7DEB72091100530E027
:10254000322F2227260F371F90E0982F882741E04F
:1025500050E0BE016F5F7F4F820F931F0E940D12EC
:1025600089810F90DF91CF910895CF93C82F462F87
:1025700061E070E00E94480461E070E08C2F0E94EE
:1025800098128111F9CFCF910895CF93C82F80E58C
:1025900091E00E94980468E070E08C2FCF910C9439
:1025A000B512CF93C82F80E591E00E94980460E1B6
:1025B00070E08C2FCF910C94B512CF93DF93EC0188
:1025C000888D843020F40E94D11284E0888FDF91BE
:1025D000CF910895CF93FC01C08D80E591E00E94DA
:1025E000980460E270E08C2F0E94B51262E070E007
:1025F0008C2F0E94981284FD16C062E070E08C2F30
:102600000E94981283FF0AC048E162E070E08C2FBC
:102610000E94480480E090E0CF91089580E591E029
:102620000E949804E3CF40E162E070E08C2F0E94AA
:10263000480481E0F0CF63E070E00C949812CF93EF
:10264000C82F80E591E00E9498048C2FCF910C94C4
:102650001B13CF93DF93EC018C858430D0F40E9460
:102660001F13843189F0882379F0883169F021E0E3
:102670008C3159F4E881F9810084F185E02DCE0197
:10268000099521E0892B09F420E0822FDF91CF9179
:10269000089580E0FBCFCF92DF92EF92FF92CF932D
:1026A000DF93EC018C85843068F40E94C5120E948F
:1026B00069016B017C018C850E941F13811109C087
:1026C00084E08C87DF91CF91FF90EF90DF90CF90E7
:1026D000089561E070E080E090E00E9437010E9480
:1026E0006901AB01BC014C195D096E097F098D853B
:1026F0009E85B0E0A0E0481759076A077B07D8F22B
:102700008C850E94D112DCCFCF93DF931F92CDB77F
:10271000DEB741E050E0BE016F5F7F4F90E080E0A8
:102720000E940D1289810F90DF91CF910895CF9370
:10273000DF93C4E1D0E00E948413882361F061E05C
:1027400070E080E090E00E9437012197A1F780E0DF
:10275000DF91CF91089581E0FBCF1F93CF93DF935B
:1027600000D0CDB7DEB760E372E080E090E00E9479
:1027700037010E94040380910401282F30E0F90101
:10278000E056FF4FE491F0E0EE0FFF1FE457FF4FDC
:102790004591549150930F0540930E05F901EC5467
:1027A000FF4FE491E0930D050E9490000E94AA0261
:1027B00080E591E00E94980484E380933C0580E8E2
:1027C0000E94FA030E949713882309F448C088E006
:1027D0000E94FA030E948413883009F040C080E10F
:1027E0000E94FA030E9484138031C9F580E00E94A0
:1027F000FA030E948413182F811131C041E050E088
:10280000BE016F5F7F4F8FE190E00E940D128981C2
:10281000833029F580E48093100542E06EE170E09A
:10282000812F0E94480442E06FE170E0812F0E94F6
:1028300048041F5F143089F740E06EE170E0812F9B
:102840000E94480440E06FE170E0812F0E9448043C
:102850001F5F183089F781E080933F076AC087E3E4
:1028600080933C0580E80E94FA030E949713882316
:1028700029F188E00E94FA030E9484138830F1F461
:1028800080E10E94FA030E948413182F8031B1F472
:1028900080E00E94FA030E94841381110FC041E07E
:1028A00050E0BE016F5F7F4F89E390E00E940D1200
:1028B0008981843019F410931005CDCF83E3809380
:1028C0003C0580E80E94FA030E949713882371F167
:1028D00080E10E94FA030E948413803139F582E17D
:1028E0000E94FA030E948413823101F580E00E9465
:1028F000FA030E948413811119C084E080931005AB
:1029000015E51A8341E050E0BE016E5F7F4F8BE119
:1029100090E00E944A03198341E050E0BE016F5FDE
:102920007F4F8AE190E00E944A0395CF10923C05C8
:1029300080E00F900F90DF91CF911F910895CF927B
:10294000DF92EF92FF92CF93DF93CDB7DEB7C25401
:10295000D1090FB6F894DEBF0FBECDBFFC01428196
:1029600053816481758123964CAF5DAF6EAF7FAFAD
:10297000239781E023968FAF23972396CCACDDACD1
:10298000EEACFFAC2397CBAADCAAEDAAFEAA4DA71A
:102990005EA76FA778AB88ABCDA4DEA4EFA4F8A8A0
:1029A000CFA2D8A6E9A6FAA68EABCBA8DCA8EDA844
:1029B000FEA8C9A2DAA2EBA2FCA22FED31E03C8B6B
:1029C0002B8B9FEF9D8B9E8B9F8B188E3E872D8729
:1029D0008AA7CFA0D8A4E9A4FAA4CF86D88AE98A86
:1029E000FA8A8CA389A19AA1ABA1BCA189879A87F5
:1029F000AB87BC873A8329834B835C836D837E835B
:102A000080913F078823A1F180E591E00E9498041E
:102A100046E050E069E171E089E090E00E944A03FD
:102A2000CE0103960E946504CE010F960E947304A6
:102A3000CE0145960E946C0481E08C8789859A8539
:102A4000AB85BC858093FD079093FE07A093FF079D
:102A5000B0930008CE5BDF4F0FB6F894DEBF0FBE19
:102A6000CDBFDF91CF91FF90EF90DF90CF90089591
:102A70000E94AD13882371F3C7CF1F93CF93DF93C9
:102A80001F92CDB7DEB7182F80E591E00E94980421
:102A9000812F0E94BF0227E0129FF0011124E05E07
:102AA000FA4F22813381377041E050E0BE016F5F01
:102AB0007F4F820F931F0E940D1289810F90DF912B
:102AC000CF911F910895FC01808D843040F4218DB9
:102AD000328D232B21F00E943D1590E008958FEF59
:102AE0009FEF0895CF93DF93FC012485243028F0D5
:102AF0008FEF9FEFDF91CF910895EC010190F0816E
:102B0000E02D0084F185E02D0995892B89F38C85D2
:102B10000E943D1590E0EECFDA01E0911005F0E063
:102B2000FE2FEE27E60FF71F90E0982F8827A901C8
:102B3000BD018E0F9F1F0C940D128F929F92AF922A
:102B4000BF92CF92DF92EF92FF921F93CF93DF93CA
:102B5000CDB7DEB72C970FB6F894DEBF0FBECDBF52
:102B600020913C0514E0222329F16B017C0180E5D2
:102B700091E00E9498045E0127E0A20EB11C45017D
:102B800010E0812F0E941B13F40181934F018823D1
:102B900049F11F5F1430A9F710E0F50181915F0141
:102BA0008D31D9F08831C9F08A518230B0F01F5F81
:102BB000143099F7812F2C960FB6F894DEBF0FBE14
:102BC000CDBFDF91CF911F91FF90EF90DF90CF901D
:102BD000BF90AF909F908F90089560E170E0812F3B
:102BE0000E94B512A12EB12C83EE93E00197F1F76C
:102BF00042E870E060E0812F0E9448044FEF62E0FD
:102C000070E0812F0E944804B601C114D10491F4F0
:102C1000809117019091180101968115F0EC9F07A2
:102C200008F45CC09093180180931701609117011C
:102C300070911801812F0E94330486E0E9E2F1E0EF
:102C4000DE01119601900D928A95E1F7F7018381DB
:102C50008F778C8384818D8385818E83A7014E5FDE
:102C60005F4F24E030E06CE070E0812F0E940D04A3
:102C7000B601812F0E941E0426E030E0AE014F5FB6
:102C80005F4F66E070E0812F0E940D0461E070E00C
:102C9000812F0E94B51227E02A9DC0012B9D900D27
:102CA00011249C01205E3A4F7901F90111821082B2
:102CB00022E030E0AE01455F5F4F68E270E0812FB7
:102CC0000E948C158B859C85982789279827F7016A
:102CD000938382831682158214826CCF80E090ECFD
:102CE000A1CFCF92DF92EF92FF920F931F93CF93DA
:102CF000DF9300D000D000D0CDB7DEB78C016B01E0
:102D00007A01FC01808D843010F40E94D1128FED85
:102D100091E09A838983F60182819381A481B581B0
:102D20008B839C83AD83BE83B701CE0101960E9445
:102D30009D15F801808F8430A0F4F586E486128E0C
:102D4000118E81E026960FB6F894DEBF0FBECDBF80
:102D5000DF91CF911F910F91FF90EF90DF90CF9077
:102D6000089580E0EFCF0F931F93CF93DF9300D0B0
:102D7000CDB7DEB7FC0124852430E0F48C0180E57A
:102D800091E00E94980422E030E0AE014F5F5F4F77
:102D900060E170E0F80184850E948C1589819A8138
:102DA0009827892798270F900F90DF91CF911F9137
:102DB0000F91089590E080E0F6CF0F931F93CF938B
:102DC000DF9300D0CDB7DEB7FC0124852430E0F4DA
:102DD0008C0180E591E00E94980422E030E0AE0191
:102DE0004F5F5F4F64E070E0F80184850E948C15AE
:102DF00089819A819827892798270F900F90DF91D2
:102E0000CF911F910F91089590E080E0F6CFAF929F
:102E1000BF92CF92DF92EF92FF920F931F93CF93C7
:102E2000DF9300D000D000D0CDB7DEB7082F6B0104
:102E300080E591E00E9498049E012F5F3F4F790149
:102E4000590110E0812F0E941B13F50181935F014E
:102E5000882341F11F5F1430A9F710E0F701819139
:102E60007F018D31D1F08831C1F08A518230A8F0D4
:102E70001F5F143099F7812F26960FB6F894DEBFA6
:102E80000FBECDBFDF91CF911F910F91FF90EF90BB
:102E9000DF90CF90BF90AF90089560E170E0812FF8
:102EA0000E94B512E12EF12C83EE93E00197F1F729
:102EB000402F70E060E0812F0E9448044FEF62E0F5
:102EC00070E0812F0E944804B601CD2889F48091DA
:102ED00017019091180101968115F0EC9F0798F168
:102EE0009093180180931701609117017091180158
:102EF000812F0E94330461E070E0812F0E94B5129F
:102F000027E02E9DC0012F9D900D11249C01205E75
:102F10003A4F7901F9011182108222E030E0AE01CE
:102F20004B5F5F4F68E270E0812F0E948C158D81AE
:102F30009E81982789279827F70193838283168299
:102F40001582148298CF80E090ECCACFCF92DF92A6
:102F5000EF92FF921F93CF93DF93EC017B016A0105
:102F60008C85843048F40E941F13882319F08C85C7
:102F70000E94C51284E08C87F70182819381A4812D
:102F8000B5810097A105B10551F490E080E0DF9193
:102F9000CF911F91FF90EF90DF90CF9008958F3FDA
:102FA0009F4FAF4FBF4F89F380913C05811103C004
:102FB00084E08C87EACF70E060E081E20E9407172E
:102FC000182F8C87843008F780E591E00E949804E0
:102FD000A7014E5F5F4F24E030E06CE070E0812F8E
:102FE0000E940D04B601812F0E941E0464E070E06F
:102FF000812F0E94B5120E9469016B017C018C85B2
:103000000E941F13873109F18C31F9F0882309F4EC
:10301000BCCF0E946901AB01BC014C195D096E096E
:103020007F098D859E85B0E0A0E084179507A607EF
:10303000B70738F061E070E080E090E00E9437016F
:10304000DECF8C850E94D112B3CF81E090E09FCF7C
:103050000F931F93CF93DF93EC018B01888D843006
:1030600010F40E94D11280913C05811107C094E0B8
:10307000988FDF91CF911F910F910895B80182E051
:103080000E940717888F843030F41D870C871A8EB2
:10309000198E81E0EECF80E0ECCF7F928F929F92ED
:1030A000AF92BF92CF92DF92EF92FF920F931F9356
:1030B000CF93DF9300D0CDB7DEB7782E8B014A01D6
:1030C000590122E030E0AE014F5F5F4F64E270E0F3
:1030D0000E948C15E980FA80FE24EF24FE24E00E85
:1030E000F11E9701377040913C05072D10E04333E6
:1030F00009F042C0085F1F4F102F0027110F110F5A
:10310000110FC901800F911F4733C9F1A9014A0D61
:103110005B1D4130584098F160E078E06B01C21AC5
:10312000D30AA601B4010E944A03A5014C195D0906
:10313000B4016C0D7D1DC8010E944A03EA0CFB1C02
:10314000F982EA8222E030E0AE014F5F5F4F64E235
:1031500070E0872D0E940D040F900F90DF91CF91AA
:103160001F910F91FF90EF90DF90CF90BF90AF90A5
:103170009F908F907F900895005F1F4FBDCFA50156
:10318000B401DACFEF92FF921F93CF93DF9300D079
:10319000CDB7DEB7182F22E030E0AE014F5F5F4FB2
:1031A00060E270E00E948C15E980FA80FE24EF2432
:1031B000FE2422E030E0AE014F5F5F4F60E270E03E
:1031C000812F0E948C1589819A81982789279827B9
:1031D000E816F90689F487E0189FF0011124E05EF3
:1031E000FA4FF582E482C7010F900F90DF91CF91E3
:1031F0001F91FF90EF9008957C01DBCF1F93CF9339
:10320000DF93182F80E591E00E949804812F0E949F
:10321000C218EC01812F0E941B13873121F08C31E1
:1032200011F0D0E0C0E0CE01DF91CF911F91089561
:10323000CF93DF93EC018C85843060F40E941F13E0
:10324000873111F08C3131F48C850E94FE18811584
:10325000984088F3DF91CF910895FC0184858430F4
:1032600010F40C94FE1890E080E008959F92AF92C5
:10327000BF92CF92DF92EF92FF920F931F93CF9363
:10328000DF938C015B01942EE52EFC01C688D78864
:10329000F08C80E591E00E9498048F2D0E94C21866
:1032A000C92DDE2D8C179D0708F4EC019E01A501A8
:1032B000B6018F2D0E944D18F801868997898C0FD1
:1032C0009D1F978B868BCE01DF91CF911F910F9120
:1032D000FF90EF90DF90CF90BF90AF909F900895B8
:1032E0008F929F92AF92BF92CF92DF92EF92FF9216
:1032F0000F931F93CF936C015B018A01FC01C4857E
:10330000C430D0F57A014130584018F0E12C88E003
:10331000F82E80E591E00E9498048C2F0E94C2183C
:103320004C018C2F0E941B13873111F08C3139F521
:103330008E149F0470F380E591E00E949804970139
:10334000A50170E060E08C2F0E944D1860E270E0F3
:103350008C2F0E94B51262E070E08C2F0E949812B0
:1033600084FD15C08C2F0E941B1381110BC081E0BE
:1033700090E0F6019383828310E000E010C0F12C0E
:10338000E12CD9CF80E591E00E949804E4CF40E1A0
:1033900062E070E08C2F0E944804EF2841F3C801DE
:1033A000CF911F910F91FF90EF90DF90CF90BF9042
:1033B000AF909F908F900895FF920F931F93CF939C
:1033C000DF9300D0CDB7DEB7F82E22E030E0AE01BB
:1033D0004F5F5F4F66E270E00E948C1509811A8191
:1033E00010270127102722E030E0AE014F5F5F4F2A
:1033F00066E270E08F2D0E948C1589819A81982752
:10340000892798270817190749F4C8010F900F90CA
:10341000DF91CF911F910F91FF9008958C01E3CF21
:103420001F93CF93DF93182F87E0189FE00111249B
:10343000C05EDA4F88819981009761F480E591E060
:103440000E949804812F0E94DC192E81821B910911
:1034500099838883DF91CF911F910895FC01848522
:10346000843010F40C94101A90E080E008954F928C
:103470005F927F928F929F92AF92BF92CF92DF9294
:10348000EF92FF920F931F93CF93DF9300D0CDB7AE
:10349000DEB7782E6B014A01A82EB12C27E0829F5F
:1034A000C0011124FC01E05EFA4F7F01008111810F
:1034B00080E591E00E9498040815190554F4872DC1
:1034C0000E94DC19F70126818C01021B110911836E
:1034D00000830115110519F5872D0E941B138431F6
:1034E00059F0882349F001E010E08C3111F410E02C
:1034F00000E0119501951109C8010F900F90DF911F
:10350000CF911F910F91FF90EF90DF90CF90BF90E0
:10351000AF909F908F907F905F904F90089580160E
:1035200091060CF4840187E08A9DF0018B9DF00DDB
:103530001124E05EFA4FE280F380C114D10451F10E
:103540002701F7E05F22872D0E94BF02840D951DA1
:1035500020913C05273309F453C09801240D351DF3
:103560002130384008F44CC020E038E0490184188C
:103570009508A401B6010E940D122601480C591CA1
:103580006801C818D908872D0E94BF02A601B201A0
:103590000E940D12E00EF11E87E08A9DF0018B9DC6
:1035A000F00D1124E05EFA4FF382E2822081318136
:1035B000201B310B318320838681800F912F911D39
:1035C0008A3F910510F4232BF1F487E08A9DF001E6
:1035D0008B9DF00D1124E05EFA4F1682F982EA828B
:1035E00022E030E0AE014F5F5F4F68E270E0872D70
:1035F0000E940D0460E470E0872D0E94B5127CCF1C
:10360000A801B601C5CF868377CFCF93DF93FC01A6
:10361000218D328D2115310529F48FEF9FEFDF9138
:10362000CF910895EC01808D4217530708F0A9014E
:103630000E94371A1816190684F7298D3A8D281B0F
:10364000390B3A8F298FEBCF0F931F93CF93DF93D3
:103650001F92CDB7DEB7FC01218D328D232B41F4B3
:103660008FEF9FEF0F90DF91CF911F910F910895F2
:103670008C0141E050E0BE016F5F7F4FFC01808D07
:103680000E94371A181619065CF7F801818D928D81
:103690000197928F818F898190E0E4CFCF93DF9360
:1036A0001F92CDB7DEB741E050E0BE016F5F7F4FA4
:1036B000FC0184850E94371A1816190634F4898192
:1036C00090E00F90DF91CF9108958FEF9FEFF9CFAA
:1036D000FC018485843010F40C94371A90E080E06B
:1036E0000895FC0180819181009711F00C945C3366
:1036F00008950C945C33FB0101900020E9F73197A9
:10370000AF01461B570BDC01ED91FC910280F38168
:10371000E02D09948F929F92AF92BF92EF92FF9209
:103720000F931F93CF93DF93CDB7DEB7A1970FB65B
:10373000F894DEBF0FBECDBF7C01FA01CB0119A208
:10374000223008F42AE08E010F5D1F4F822E912C4B
:10375000B12CA12CBF01A50194010E947632F90180
:10376000CA016A300CF5605DD8016E938D01232B80
:10377000242B252B79F790E080E0109721F0BD01F4
:10378000C7010E947B1BA1960FB6F894DEBF0FBE47
:10379000CDBFDF91CF911F910F91FF90EF90BF9020
:1037A000AF909F908F900895695CDECF8F929F922B
:1037B000AF92BF92CF92DF92EF92FF920F931F933F
:1037C000CF93DF937C01EB016C0182E0C80ED11C2A
:1037D0004701E5E08E0E911C10E000E0F6014191FA
:1037E0006F0150E070E060E02AE0CE010E948A1B89
:1037F0005C01E881F9810190F081E02D6EE2CE015B
:1038000009958A0D9B1D080F191FC814D90431F79B
:10381000F701458150E070E060E02AE0CE010E94AF
:103820008A1B800F911FDF91CF911F910F91FF9005
:10383000EF90DF90CF90BF90AF909F908F900895C2
:10384000CF93DF9360E477E00E94D61BEC0161EE3A
:1038500071E080E497E00E947B1B8C0F9D1FDF913D
:10386000CF9108950F931F93CF93DF93EC010E94A4
:103870007B1B8C0161EE71E0CE010E947B1B800FEF
:10388000911FDF91CF911F910F9108950C947B1B95
:10389000EF92FF920F931F93CF93DF93EC017B0185
:1038A000198218821B821A821D821C82FB010190E0
:1038B0000020E9F731978F01061B170BB8016F5FE6
:1038C0007F4F90E080E00E94E5330097B9F0998344
:1038D00088831B830A832C813D81232B11F4FC01F7
:1038E00010821D830C83B70188819981DF91CF916C
:1038F0001F910F91FF90EF900C94CA3488819981A9
:10390000009711F00E945C33198218821D821C827C
:103910001B821A82DF91CF911F910F91FF90EF9040
:103920000895DC018FED91E08D939D9384E0FB0180
:1039300001900D928A95E1F70895EF92FF920F930F
:103940001F93CF93DF9300D000D0CDB7DEB78C01AB
:103950007B01FB0184858430A8F08FED91E0F801B4
:10396000918380831282138214821582C8010F9082
:103970000F900F900F90DF91CF911F910F91FF90BB
:10398000EF90089580E591E00E94980424E030E0F3
:10399000AE014F5F5F4F6CE070E0F70184850E94DD
:1039A0008C15BE016F5F7F4FC8010E94911CDECF56
:1039B0000F931F93CF93DF93CDB7DEB728970FB642
:1039C000F894DEBF0FBECDBF8C01D80159964D9142
:1039D0005C915A974115510551F0ED91FC91048C81
:1039E000F58DE02D70E060E0C8010995EECFF8019B
:1039F000808D0E94101A892BB1F148E050E0BE0181
:103A00006F5F7F4FD80158968C910E94371A181615
:103A10001906F4F4D801509684E0FE013196019025
:103A20000D928A95E1F78D8190E0982F88272E815D
:103A3000820F911DF801958B848B8F81282F30E0A8
:103A4000322F22278885820F932F911D928F818F8D
:103A500028960FB6F894DEBF0FBECDBFDF91CF9191
:103A60001F910F91089590E080E0F2CF4F925F9206
:103A70006F927F928F929F92AF92BF92CF92DF927E
:103A8000EF92FF920F931F93CF93DF93CDB7DEB7E3
:103A900063970FB6F894DEBF0FBECDBF7C016B01FC
:103AA0003A01FB0120E090E080E06AE031913323AD
:103AB00009F461C040ED430F4A3008F04DC0689FE3
:103AC000A001699F500D1124CA01C097830F911D59
:103AD00037FD9A958F3F910549F340F3F7014281F5
:103AE0005381648175818091090890910A08A091A1
:103AF0000B08B0910C08481759076A077B0709F4AF
:103B00000DC28701085F1F4F0E9469016F70772700
:103B10007C5FC8010E942818813009F004C28FED33
:103B200091E09A838983F70182819381A481B58191
:103B30008B839C83AD83BE8345E350E0BE016F5F02
:103B40007F4FC8010E949B04892BA9F5D12CC12C61
:103B5000C8010E94DD1217C03E3209F0BFCF2330EA
:103B600009F4BCCFD301A20FB11D12968C932F5F25
:103B700090E080E09BCF233009F0B0CFF301858344
:103B8000CC24C394D12CC60163960FB6F894DEBF43
:103B90000FBECDBFDF91CF911F910F91FF90EF909E
:103BA000DF90CF90BF90AF909F908F907F906F905D
:103BB0005F904F9008950E946901F70177836683B3
:103BC00042E050E0B7016A5F7F4FC8010E9436199A
:103BD00081E090E09A83898342E050E0BE016F5F0C
:103BE0007F4FC8010E94361980E091E09A83898353
:103BF00042E050E0BE016F5F7F4FC8010E9436195E
:103C00001A82198242E050E0BE016F5F7F4FC80107
:103C10000E94361942E050E0BE016F5F7F4FC8013D
:103C20000E94361942E050E0BE016F5F7F4FC8012D
:103C30000E9436195601F6018081882301F1650141
:103C4000F60181912F01882311F08E32B1F44601E3
:103C50008A189B081814190474F48D8641E050E00A
:103C6000BE01635F7F4FC8010E943619A401B501F0
:103C7000C8010E9436195201DECF6201E1CF1D86D4
:103C800041E050E0BE01635F7F4FC8010E943619DA
:103C9000C12CDD24D394DA82C98242E050E0BE0117
:103CA0006F5F7F4FC8010E943619DA82C98242E0F5
:103CB00050E0BE016F5F7F4FC8010E943619C801F6
:103CC0000E94EA12892B09F441CFF3E0AF2EB12C08
:103CD000230122E0420E511CD4C0F70142815381DE
:103CE00064817581808D918DA28DB38D48175907A0
:103CF0006A077B0709F008C1848D958DC59709F087
:103D000003C181A192A15DEFC52EDD24DA940C9749
:103D10000CF4ADC04CE050E0BE016F5F7F4FC801B6
:103D20000E94051B8B819C819827892798279A8B55
:103D3000898BF7014681578129813A8142175307C0
:103D400009F0E7C097FFE5C08F7092703BEFC32E7C
:103D5000DD24DA94892B09F08AC06F807884762478
:103D6000672476242AEFC22EDD24DA9461147104CC
:103D700009F47DC0D12CC12C8D819E819827892783
:103D80009827C816D906F8F441E050E0BE01635FF9
:103D90007F4FC8010E94051B4D85442331F050E040
:103DA00070E060E0C8010E94051B8D858111ECCF99
:103DB00044E050E070E060E0C8010E94051BFFEFA6
:103DC000CF1ADF0AD9CF912C812C41E050E0BE01FF
:103DD0006D5E7F4FC8010E94051B4B89842F807C3C
:103DE00009F06CC0442331F050E070E060E0C8019D
:103DF0000E94051B8B898111E8CF42E050E0BE0193
:103E0000615F7F4FC8010E94051B42E050E0BE0188
:103E1000635F7F4FC8010E94051B44E050E070E0E3
:103E200060E0C8010E94051B42E050E0BE016F5EE9
:103E30007F4FC8010E94051B8F85988949895A893F
:103E40008115914009F043C0CD84DE84DC24CD246B
:103E5000DC2481E0C816D104D1F54115544009F0A5
:103E60004AC044E050E0B201C8010E94051B21E0B5
:103E7000A21AB10809F46CCEFFEFCF16DF0609F0E5
:103E800067CE0E9469013B014C01C8010E94D81C09
:103E9000181619060CF421CF0E94690166197709DA
:103EA00088099909693873418105910548F562E3EC
:103EB00070E080E090E00E943701E7CF41E050E001
:103EC00070E060E0C8010E94051B1B8A93CF542755
:103ED0004527542770E060E0C8010E94051BFFEFF2
:103EE0008F1A9F0A6814790409F06FCF96EFC92ED4
:103EF000DD24DA94BCCFE7EFCE2EDD24DA94B7CF01
:103F0000CC24CA94DC2CB3CF6EEFC62EDD24DA9419
:103F1000AECF4CEFC42EDD24DA94A9CF8EEFC82E9D
:103F2000DD24DA9430CED12CC12C2DCECF92DF926D
:103F3000EF92FF920F931F93CF93DF93CDB7DEB72E
:103F4000AF970FB6F894DEBF0FBECDBF7C016A01FC
:103F50000FED11E01A8309831C861B8688EE93E01F
:103F6000A0E0B0E08D879E87AF87B88B85EB91E0AE
:103F70009A878987188F0F8B198E1A8E1B8E1C8E2D
:103F800084E089A31BA70AA71CA61DA61EA61FA620
:103F90008091FD079091FE07A091FF07B091000866
:103FA0008EA39FA3A8A7B9A78B839C83AD83BE8351
:103FB00018861F82AE01465D5F4FCE0101960E94BA
:103FC000361D81309105B1F4D701ED91FC91048843
:103FD000F589E02D1DA30CA38CA59DA5AEA5BFA5BD
:103FE0008EA39FA3A8A7B9A7A601BE016C5D7F4FB2
:103FF000C7010995AF960FB6F894DEBF0FBECDBFCF
:10400000DF91CF911F910F91FF90EF90DF90CF90B4
:104010000895CF92DF92EF92FF920F931F93CF9369
:10402000DF93CDB7DEB7AF970FB6F894DEBF0FBE04
:10403000CDBF8C016B017A018FED91E09A8389836A
:104040001B821C821D821E821C861B8648EE53E04A
:1040500060E070E04D875E876F87788B25EB31E0FD
:104060003A872987988F8F8B198E1A8E1B8E1C8EFC
:1040700024E029A39BA78AA71CA61DA61EA61FA6EF
:10408000D8011C968C91843060F40E941F13882301
:1040900021F0F80184850E94C51284E0D8011C96A5
:1040A0008C938091FD079091FE07A091FF07B0913E
:1040B00000088EA39FA3A8A7B9A78B839C83AD8379
:1040C000BE8318861F82AE01465D5F4FB601CE01EA
:1040D00001960E94361D0097C1F0D801ED91FC9128
:1040E0000684F785E02D8FED91E09DA38CA38CA530
:1040F0009DA5AEA5BFA58EA39FA3A8A7B9A7A701FD
:10410000BE016C5D7F4FC8010995AF960FB6F8945C
:10411000DEBF0FBECDBFDF91CF911F910F91FF90FA
:10412000EF90DF90CF9008950F931F93EEE3F4E0AC
:1041300080E3DF011D928A95E9F783EE80933E04C8
:1041400086E0809340048CEE8093410481E3809369
:104150004A049EE490934B0480934C0484E3809340
:104160004D044BE750E06FE271E080EA98E00E9476
:10417000961F40E350E06EE374E080EA98E00E940E
:10418000361980EA98E00E94EA1268EE73E080E057
:1041900090E00E94370180EA98E00E94D81C892BA9
:1041A00041F140E350E06EE374E080EA98E00E9461
:1041B000051B609166047091670476276727762750
:1041C00090E080E0CB01772766270091680410918A
:1041D000690410270127102730E020E0602B712BA5
:1041E000822B932B605C764B8A4A93481F910F91E8
:1041F0000895FCCF7F928F929F92AF92BF92CF9201
:10420000DF92EF92FF920F931F93CF93DF93CDB77F
:10421000DEB7A6970FB6F894DEBF0FBECDBF8C01F8
:10422000762E942E852E20E2A22ECE0101967C01C0
:10423000DC01EA2D1D92EA95E9F76801F3E4CF0E5F
:10424000D11C8FED91E09AA389A38FEF8BA38CA350
:104250008DA38EA343E450E0BE016F5D7F4FC60186
:104260000E949B04019609F4BFC081E089838A8380
:1042700086E0B82EBB821C82D80114966D917D9188
:104280008D919C9117970E94B3326D837E838F83AB
:10429000988789869A8680E890E09C878B874CE196
:1042A00050E0B701C6010E943619FE0137968AE137
:1042B000DF011D928A95E9F74801B8E08B0E911C49
:1042C000F401D70101900D92BA94E1F740E150E07A
:1042D000B701C6010E943619F7011192AA94E9F7B5
:1042E00096E0A92EB12C40E250E0B701C6010E9431
:1042F0003619F1E0AF1AB108B1F783E6898392E885
:104300009A8393E59B838C8385E38D8381E08E8301
:104310007F829DE3988797E099878A8786E0F401FA
:10432000DE011B9601900D928A95E1F78CE0898B56
:104330008A8B64EE71E0CE0143960E94CA34D801A4
:104340001B966C91CE0149960E94AF00F8016485DE
:10435000CE014B960E94AF00D8011D966C91CE0104
:104360004D960E94AF004EE150E0B701C6010E9499
:104370003619B3E07B121EC082E3898384E08A830E
:10438000F80196859B8397859C8390899D8391896D
:104390009E8396E39F838887828D8987838D8A8712
:1043A000848D8B87858D8C874CE050E0B701C601EA
:1043B0000E94361987E3898386E08A8391E09B8394
:1043C00093E09C838D838FE08E838AE38F838BE3DE
:1043D00088878FEF898749E050E0B701C6010E94C6
:1043E0003619C6010E94EA12A6960FB6F894DEBFEF
:1043F0000FBECDBFDF91CF911F910F91FF90EF9036
:10440000DF90CF90BF90AF909F908F907F90089556
:104410003F924F925F926F927F928F929F92AF9254
:10442000BF92CF92DF92EF92FF920F931F93CF93A1
:10443000DF93CDB7DEB7EA970FB6F894DEBF0FBEB5
:10444000CDBF7C012A013B0169010E9469014B013A
:104450005C0187010D5B1F4FC8010E94D81C181614
:1044600019069CF00E946901681979098A099B095B
:10447000461657066806790608F466C162E370E0DE
:1044800080E090E00E943701E7CF42E250E0BE01B9
:104490006F5F7F4FC8010E94051B89818230D1F078
:1044A000312C832DEA960FB6F894DEBF0FBECDBF38
:1044B000DF91CF911F910F91FF90EF90DF90CF9000
:1044C000BF90AF909F908F907F906F905F904F9034
:1044D0003F900895F801848995898334910501F707
:1044E0006D817E818F8198850E94B3324B015C0182
:1044F000F60180829182A282B38246E050E0B70149
:10450000685F7F4FCE014D960E94A234892B41F601
:10451000F70180819181A281B38188169906AA064C
:10452000BB0608F4BDCF84819581A681B78188152B
:104530009905AA05BB0508F4B3CF89899A89AB8987
:10454000BC8986879787A08BB18B4EEC50E070E0DA
:1045500060E0C8010E94051B312CC701829698AB10
:104560008FA7F701B696FAABE9AB08969CAB8BAB7D
:1045700067019AE1C90ED11CBD96FEABEDABC70138
:10458000429698AF8FABFD97FAAFE9AF4701FEE1D6
:104590008F0E911CF801818D928D181619060CF062
:1045A00080CFC8010E94241B8333910509F4B2C057
:1045B00014F58130910509F464C044F4892B51F35A
:1045C000C8010E94241BAC01552775C0833091059A
:1045D00009F462C00697A1F7C8010E94241BB82EF7
:1045E00044E050E0B401C8010E94051BEB2DE450EB
:1045F000FF0BAF0160C08A33910509F45FC084F5F9
:1046000085339105B1F1C697D9F6C8010E94241BE4
:104610005C01B601CE0189960E94911C8BA59CA5D8
:10462000ADA5BEA5892B8A2B8B2BB1F0EDA9FEA9D8
:104630004080518062807380B601CE0183960E94D3
:10464000911C8DA19EA1AFA1B8A5A5014816590640
:104650006A067B0609F0B8CF44E050E0B60118C006
:104660008B33910509F440C08F3F910509F492CF37
:10467000A7CFC8010E94241BC8010E94241B382E0A
:1046800089CFC8010E94241B44E050E06FA978AD97
:10469000C8010E94051B7ECFC8010E94241BB82EB2
:1046A00044E050E069AD7AADC8010E94051B8B2D36
:1046B0008450990BAC0170E060E0EACFC8010E9421
:1046C000241B44E050E069A97AA9C8010E94051B97
:1046D000F70166A177A180A591A50E94B33266A3D8
:1046E00077A380A791A756CFC8010E94241B44E05E
:1046F00050E06BA97CA9C8010E94051BF70162A5C7
:1047000073A584A595A50E94B33262A773A784A759
:1047100095A740CFC8010E94241B44E050E06FA53C
:1047200078A9C8010E94051BF70162A173A184A1A9
:1047300095A10E94B33262A373A384A395A366A735
:1047400077A780AB91AB26CF33243A94AACE3F9281
:104750004F925F926F927F928F929F92AF92BF9291
:10476000CF92DF92EF92FF920F931F93CF93DF933D
:10477000CDB7DEB72B970FB6F894DEBF0FBECDBF17
:104780007C01FE013196CE010C966F0130E231932F
:10479000E817F907E1F7DA0130E087E09D91B92EDB
:1047A000992309F43CC09E32F1F48A30C9F480E0C8
:1047B0002B960FB6F894DEBF0FBECDBFDF91CF9121
:1047C0001F910F91FF90EF90DF90CF90BF90AF902F
:1047D0009F908F907F906F905F904F903F90089543
:1047E00038E08AE0DBCFE8E6F0E04491442321F0B2
:1047F00031969413FACFDBCF8317C8F24FED490FF0
:104800004E35A8F64FE9490F4A3118F440EEB42E60
:10481000B90EF601E30FF11DB0823F5FBFCF898172
:10482000803229F2322E8B01DB015B968D919C91B7
:104830005C97F701948F838F16961D921D921D929F
:104840001C921997FB011286138614861586F801AF
:1048500082859385A485B585438954896589768940
:1048600084179507A607B70708F04DC025E0B69551
:10487000A795979587952A95D1F7F82FFF70AF2EBA
:10488000D80115968C91823008F491CFC8010E940E
:10489000890F97FD8CCFF80182859385A485B58516
:1048A0004F96A11DB11D82879387A487B587F0E23B
:1048B000AF9EB0011124635C7A4F6115710509F454
:1048C00076CFDB018C91882341F0853E09F062C0F0
:1048D000BB2029F0BB24B394BACFB1100EC0F701AE
:1048E000A28A8091000190910101A0910201B091F2
:1048F000030186879787A08BB18BDB018C91811197
:10490000E9CFBB24B394832D8271823109F04FCF5C
:10491000BB2009F44DC0F7016685778580899189B0
:1049200041E00E94A406882309F441CFD7015296A2
:104930008C91B0E28B9FC0011124835C9A4F009749
:1049400009F435CFFC013A9626E1DF011D922A9544
:10495000E9F72BE0F601DC0101900D922A95E1F7D1
:1049600021E238E2FC01318B208B40E058E0578790
:104970004687338B228B318F208F578B468B81E07C
:104980000E947906882309F412CF432DD70152964D
:104990006C910AC04BE050E0C6010E94A234892B02
:1049A00009F055CF432D6A2DC7010E94A11100CFF8
:1049B000F8018581823009F4FACEC8010E948D0A7F
:1049C000882309F4F4CED8015B96ED91FC915C97B5
:1049D00016968D909D90AD90BC901997B2E08B1A71
:1049E0009108A108B108858504C0880C991CAA1CEF
:1049F000BB1C8A95D2F786859785A089B189880ED8
:104A0000991EAA1EBB1E848124013501480E511C2B
:104A1000611C711C84149504A604B70409F1E1E03B
:104A20004E1A51086108710881E00E9479068823B6
:104A300009F4BDCEEDE3F5E011928DE397E08E171A
:104A40009F07D1F74092000150920101609202014C
:104A50007092030180910705816080930705DACF8A
:104A6000D8015B96ED91FC91258580E092E0A0E075
:104A7000B0E004C0880F991FAA1FBB1F2A95D2F768
:104A8000F8014389548965897689840F951FA61F8B
:104A9000B71F838B948BA58BB68BD70152961C9234
:104AA0008DE395E04FCF2F923F924F925F926F929E
:104AB0007F928F929F92AF92BF92CF92DF92EF92AE
:104AC000FF920F931F93CF93DF9300D000D000D0BD
:104AD000CDB7DEB78C010E94B5312FEC37E040E056
:104AE00050E00E940D32DC01CB010196A11DB11DE9
:104AF000F80184839583A683B78380839183A283FF
:104B0000B3835801F3E4AF0EB11CC5010E94DD125E
:104B100064E470E0C5010E942818882309F445C1A7
:104B20000E9469012B013C01480182E4880E911C1E
:104B300048EEC42E43E0D42EE12CF12C52E0252E79
:104B40001E821D82D4018C918330B1F1811166C027
:104B5000F80184819581A681B7810196A11DB11DBF
:104B600084839583A683B7830E94690164197509BC
:104B700086099709A70196010E947632A90161E092
:104B8000C8010E94FA2081E0D4018C938D819E811E
:104B90000197C1F20E946901641975098609970994
:104BA000D801D6962D913D914D915C91D9972617BC
:104BB00037074807590720F6C5010E94DD12F801A2
:104BC00084819581A681B7810196A11DB11D848341
:104BD0009583A683B7830E946901F801FE966083DE
:104BE0007183828393838D819E8126960FB6F8947C
:104BF000DEBF0FBECDBFDF91CF911F910F91FF9010
:104C0000EF90DF90CF90BF90AF909F908F907F906C
:104C10006F905F904F903F902F9008958430F1F403
:104C2000F80184819581A681B7810196A11DB11DEE
:104C300084839583A683B7830E94690164197509EB
:104C400086099709A70196010E947632A90163E0BF
:104C5000C8010E94FA20D4012C9298CF813051F5DE
:104C6000F80142AD53AD64AD75AD9E012F5F3F4F6E
:104C7000C8010E940822382EF2E08F1390C089816B
:104C80009A81AB81BC81F80184839583A683B78325
:104C90000E9469016419750986099709A70196019F
:104CA0000E947632A90163E0C8010E94FA20D40173
:104CB0003C926CCF823009F069CFF80142AD53AD20
:104CC00064AD75AD9E012F5F3F4FC8010E94082261
:104CD000382EF5E08F135DC0E3E0D401EC93F801CA
:104CE00082A193A1A4A1B5A1892B8A2B8B2B41F47E
:104CF00084E893E0A0E0B0E082A393A3A4A3B5A3CB
:104D0000F80186A197A1A0A5B1A5892B8A2B8B2B91
:104D100061F482A193A1A4A1B5A1B695A795979599
:104D2000879586A397A3A0A7B1A7F80182A593A50D
:104D3000A4A5B5A5892B8A2B8B2BA9F482A193A1BD
:104D4000A4A1B5A1AC01BD0123E076956795579567
:104D500047952A95D1F7841B950BA60BB70B82A715
:104D600093A7A4A7B5A7F80186A197A1A0A5B1A56F
:104D700086A797A7A0ABB1AB82A593A5A4A5B5A51F
:104D800082AB93ABA4ABB5AB81E090E09E838D8307
:104D9000FDCE96E0891303C0D4011C92F7CEBFEF7D
:104DA0003B12F4CEF4011082F1CE1E821D821BCF85
:104DB000EF92FF920F931F93CF93DF93EC017B0150
:104DC0008A011B821A8288EE93E0A0E0B0E08C8317
:104DD0009D83AE83BF8383EA91E0998388838DE1CD
:104DE00090E00E94C0329A8F898F009779F02DE170
:104DF000F701DC0101900D922A95E1F74CE050E0BB
:104E0000B801CE010C960E94D134188EDF91CF915B
:104E10001F910F91FF90EF900895CF93DF9385ED51
:104E20008093BC008091940490919504A091960485
:104E3000B09197040796A11DB11D23E0B695A795E3
:104E4000979587952A95D1F72091BC0024FD03C042
:104E50001092E00436C04091940450919504609102
:104E6000960470919704452B462B472B69F30097C6
:104E7000A105B10541F02AE22A95F1F700C001979A
:104E8000A109B109E1CF8091930491E0909392043C
:104E90008823B9F0C091B800D091BA008091BC00CD
:104EA0008A7B8093BC0060E082E10E94C60060E0E3
:104EB00083E10E94C6000E94FE10D093BA00C09306
:104EC000B800DF91CF9108952F923F924F925F9259
:104ED0006F927F928F929F92AF92BF92CF92DF920A
:104EE000EF92FF920F931F93CF93DF93CDB7DEB76F
:104EF000CF57D1090FB6F894DEBF0FBECDBF0E94C9
:104F00000403E0915007F091510782E08083E09123
:104F10004C07F0914D071082E0914E07F0914F073A
:104F20008FEC808310925807E0915407F091550759
:104F300086E08083E0915207F09153078081806181
:104F40008083E0915207F0915307808188608083CD
:104F5000E0915207F0915307808180688083E0914F
:104F60005207F091530780818F7D808310928F04C8
:104F700010928E0410929104109290040E94FE10E0
:104F80008CE191E19093B9048093B8048DE191E1B3
:104F90009093BD048093BC0468EE73E080E090E0E1
:104FA0000E9437016BEE71E080E497E00E94321CB2
:104FB00084E00E94900060E084E00E94C6000E94AD
:104FC0003E0C7E0183E7E80EF11C8DE0ECEBF2E095
:104FD000D70101900D928A95E1F7712C93E5892E06
:104FE00091E0992E872D6AE00E94A732805DD7015B
:104FF00016968C931697905D17969C931EAE1DAED9
:105000009CAE8BAE21961FAE219719A218A29F8E3F
:105010008E8E1BA2312C212CFE01FB965F018FE3AB
:10502000C82E88E0D82E832D922DF701E80FF91FA6
:1050300020812F3209F40196D701A80FB91FFE0174
:10504000E85AFF4F30E020E08F014D914F3249F098
:10505000442339F001962F5F3F4F41932C303105A7
:10506000A1F7200F311FD9011C92F701E80FF91F9A
:1050700020812F3209F40196382E292E8E0D9F1D86
:10508000FC0160801C821B829A8289821E8221E040
:10509000A801B601CE0101960E94A723882309F436
:1050A000FFC2CE0101960E94310C61100DC0EFE3EA
:1050B000CE16E8E0DE0619F0C6010E94310C7394AA
:1050C000B4E67B128FCFE9C0D50115968C91811182
:1050D000FDC221E0A801B601C5010E94A723682EE8
:1050E000BFE3CB16B8E0DB0609F4E4C2C6010E94B8
:1050F000310C6110E5C219A218A283E591E09F8FDF
:105100008E8F1BA21C821B829A8389831E824E0172
:10511000FEE18F0E911CC4010E94A509CE010196EB
:105120006C01140157016FE270E0C5010E94BF34A9
:10513000009709F455C0D5012C912F3271F4BFEFBF
:10514000AB1ABB0A9C2D8D2D6101292E382E922D74
:10515000832D1601C92ED82EE6CF8A198D3008F07E
:105160008CE0682E712CA301B501C8010E94D134D6
:10517000F801E60DF71D1082C6010E94310CF60100
:1051800085818823F9F01EAE1DAE83E591E09CAFCA
:105190008BAF21961FAE2197E40CF51CD7018C91A3
:1051A000811127C0BE01655C7F4FCE0101960E9430
:1051B000CC0E47EF51E0BE016F5F7F4FC8010E94E8
:1051C000D82635C021E0A801B101C6010E94A7235D
:1051D0008823C9F2A60CB71CC1010E94310CB7CFBD
:1051E00025014E185F08B101CE01CB960E94CC0E6E
:1051F000D3CF19A218A283E591E09F8F8E8F1BA2B7
:1052000021968FAD2197811165C1F8011382128219
:1052100088EE93E0A0E0B0E084839583A683B78313
:1052200083EA91E091838083128E118E1486D801D7
:1052300012968D919C91139790938808809387087C
:1052400014968D919D910D90BC91A02D809389080D
:1052500090938A08A0938B08B0938C08F8018085FE
:105260009185A285B38580938D0890938E08A09335
:105270008F08B0939008D8011C96E1E9F8E08D9171
:10528000819388E0EE39F807D1F7D80159968D91CE
:105290009C9190939F0880939E0869EF71E085E848
:1052A00098E00E94461C6EEF71E085E898E00E944D
:1052B000461C61E072E085E898E00E94461C6EEFB3
:1052C00071E085E898E00E94461C66E072E085E89F
:1052D00098E00E94461C62EE71E085E898E00E942A
:1052E000461C61E084E00E94C6008AE00E949000B3
:1052F00060E08AE00E94C6008AE08093040168E8CA
:1053000073E180E090E00E943701809136048111C2
:105310002AC010921E0410921D0488EE93E0A0E0B3
:10532000B0E080931F0490932004A0932104B093D5
:10533000220485EB91E090931C0480931B048FED75
:1053400091E090932A048093290410922B041092E8
:105350002C0410922D0410922E0484E080933304C8
:1053600081E08093360488ED93E09093120580935A
:10537000110580913F07882309F4C9C080E591E0B9
:105380000E94980446E050E069E171E089E090E015
:105390000E944A038FED91E09A8389831B821C82CD
:1053A0001D821E82CE0103960E9465041092FA03AC
:1053B0001092FB031092FC031092FD031092FE0367
:1053C0001092FF0310920004109201041092020444
:1053D00010920304109204041092050480E69AEEE1
:1053E000A0E0B0E080930E0490930F04A09310040B
:1053F000B093110480EA9FE0A0E0B0E08093120433
:1054000090931304A0931404B0931504E6EEF3E014
:1054100084E1DF011D928A95E9F786E0E9E1F1E098
:10542000A0EEB3E001900D928A95E1F710921A0474
:1054300088ED93E00E9453258130910509F02CC13D
:1054400080E591E00E9498040091110510911205E9
:10545000B801625F7F4FCE0101960E94911CCE0180
:1054600003960E946504B8016A5E7F4FCE010196E3
:105470000E94911CCE0103960E947304B8016E5ED7
:105480007F4FCE0101960E94911CCE0103960E948F
:105490006C04B801625E7F4FCE0101960E94911CA0
:1054A0008B819C81AD81BE818093FD079093FE0727
:1054B000A093FF07B09300080E9412017F738091B0
:1054C000170190911801682779277093180160934C
:1054D00017013BC027E1A701BE01655C7F4FC401F6
:1054E0000E94A723882309F490CECE01CB960E9478
:1054F000310C49A95AA96BA97CA9C4010E94F909D8
:10550000B401CE0101960E94CC0EA70154CE0E9498
:10551000AD13811133CF6AE072E080E497E00E941E
:10552000321C8FED91E09A8389838091720890916B
:105530007308A0917408B09175088B839C83AD8328
:10554000BE83CE0101960E949F1462E372E080E464
:1055500097E00E94321C68EE73E080E090E00E94C9
:10556000370168EB72E280EA98E00E9428186BE34A
:1055700072E080E497E00E94321C68E672E080E40A
:1055800097E00E94461C0FED11E01A8309831B82ED
:105590001C821D821E8280E591E00E94980444E0F6
:1055A00050E0BE016D5F7F4F8FE090E00E940D12D2
:1055B000CE0101960E94201C6DE772E080E497E026
:1055C0000E94461C1A8309831B821C821D821E8234
:1055D00080E591E00E94980444E050E0BE016D5FD8
:1055E0007F4F85E090E00E940D12CE0101960E944F
:1055F000201C62E972E080E497E00E94461C1A8356
:1056000009831B821C821D821E8280E591E00E941C
:10561000980444E050E0BE016D5F7F4F81E090E070
:105620000E940D12CE0101960E94201C67EA72E0D2
:1056300080E497E00E94461C1A8309838091FD074D
:105640009091FE07A091FF07B09100088B839C8387
:10565000AD83BE83CE0101960E94201C61E08AE0EA
:105660000E94C600C158DF4F0FB6F894DEBF0FBED0
:10567000CDBFDF91CF911F910F91FF90EF90DF9001
:10568000CF90BF90AF909F908F907F906F905F90E2
:105690004F903F902F900895892B09F056CF3BCF24
:1056A000BFE3CB16B8E0DB0609F425CDC6010E94A6
:1056B000310C21CD882309F41ECDCE014E966C010C
:1056C0009C2D8D2D6501A92EB82EADCCEFE3CE1605
:1056D000E8E0DE0609F40FCDE9CF1F920F920FB676
:1056E0000F9211242F933F938F939F93AF93BF9368
:1056F0008091180590911905A0911A05B0911B058C
:105700003091170523E0230F2D3758F50196A11D81
:10571000B11D209317058093180590931905A09348
:105720001A05B0931B0580911C0590911D05A09151
:105730001E05B0911F050196A11DB11D80931C058A
:1057400090931D05A0931E05B0931F05BF91AF91C7
:105750009F918F913F912F910F900FBE0F901F90AF
:10576000189526E8230F0296A11DB11DD2CF1F92D6
:105770000F920FB60F9211242F933F934F935F9385
:105780006F937F938F939F93AF93BF93EF93FF9309
:1057900080E497E00E940102FF91EF91BF91AF91E9
:1057A0009F918F917F916F915F914F913F912F9139
:1057B0000F900FBE0F901F9018951F920F920FB66B
:1057C0000F9211242F938F939F93EF93FF93E09168
:1057D0005007F09151078081E0915607F0915707EB
:1057E00082FD1BC09081809159078F5F8F7320913C
:1057F0005A07821741F0E0915907F0E0E05CF84F5A
:10580000958F80935907FF91EF919F918F912F91E1
:105810000F900FBE0F901F9018958081F4CF1F92AC
:105820000F920FB60F9211242F933F934F935F93D4
:105830006F937F938F939F93AF93BF93EF93FF9358
:105840008091B900887F803609F44AC0F0F588322B
:1058500009F4A7C018F5803109F49BC0B8F4882377
:1058600009F4F9C0883009F494C0FF91EF91BF9119
:10587000AF919F918F917F916F915F914F913F91E8
:105880002F910F900FBE0F901F901895883109F43B
:1058900088C0803251F78093DF0414C0803409F44B
:1058A0009DC040F48033B9F38833F9F68093DF0468
:1058B00085ECB0C0803509F485C0883509F496C000
:1058C000883499F60E940D27D0CF883909F48CC00E
:1058D00038F5883729F050F4883611F0803729F6EA
:1058E00083E08093E0041092DE0457C0883809F406
:1058F0007BC0803919F0803809F0B7CF8091DE0481
:10590000803208F071C0E091DE0481E08E0F809358
:10591000DE048091BB00F0E0E254FB4F80833DC089
:10592000803B39F0E0F4803A09F479C0883A09F014
:105930009CCF84E08093E0041092BB041092BA04E0
:10594000E091B804F091B90409958091BA048111ED
:105950000FC081E08093BA041092980409C0803C83
:1059600009F4A6CF883C09F4A3CF883B09F07DCF8A
:10597000E091BB0481E08E0F8093BB04F0E0E85619
:10598000FB4F80818093BB009091BB048091BA044F
:1059900029C0809105058093BB0085EC8093BC00F5
:1059A00064CF9091040580910305981758F5E09114
:1059B000040581E08E0F80930405F0E0ED51FB4F6C
:1059C0008081E9CFE091040581E08E0F809304058A
:1059D0008091BB00F0E0ED51FB4F80839091040576
:1059E000809103059817C8F285E8D8CFE0910405A7
:1059F00081E08E0F809304058091BB00F0E0ED51B3
:105A0000FB4F80838091E20481115CCF81E0809321
:105A1000E10484EA8093BC001092E00426CF85EC78
:105A20008093BC001092E0048091DE04803230F458
:105A3000E091DE04F0E0E254FB4F10826091DE045E
:105A400070E0E091BC04F091BD048EEB94E0099508
:105A50001092DE040ACF1092DF0434CF0F931F930D
:105A6000E0E4F7E01382128248EE53E060E070E079
:105A7000448355836683778381E491E091838083B7
:105A800085EC90E09587848784EC90E09787868703
:105A900080EC90E0918B808B81EC90E0938B828BFB
:105AA00082EC90E0958B848B86EC90E0978B868BD4
:105AB000118E128E138E148EEDEDF7E08FED91E0C6
:105AC000918380831282138214821582E3EEF7E0C1
:105AD000918380831282138214821582E9EEF7E0AB
